:020000040800F2
:10000000F008002021490008B1020008B3020008EE
:10001000B7020008BB020008BF0200080000000091
:10002000000000000000000000000000C302000803
:10003000C502000800000000C7020008C90200084D
:100040003B4900083B4900083B4900083B49000880
:100050003B4900083B4900083B4900083B49000870
:100060003B4900083B4900083B4900083B49000860
:100070003B4900083B4900083B4900083B49000850
:100080003B4900083B4900083B4900083B49000840
:100090003B4900083B4900083B4900083B49000830
:1000A0003B4900083B4900083B4900083B49000820
:1000B0009D0600083B4900083B4900083B490008F1
:1000C0003B4900083B4900083B4900083B49000800
:1000D0003B490008794800083B4900083B490008B3
:1000E0003B4900083B4900083B4900083B490008E0
:1000F0003B4900083B4900083B4900083B490008D0
:100100003B4900083B4900083B4900083B490008BF
:100110003B4900083B4900083B4900089905000895
:100120003B4900083B4900083B4900083B4900089F
:1001300000F002F800F042F80AA090E8000C8244B7
:100140008344AAF10107DA4501D100F037F8AFF294
:10015000090EBAE80F0013F0010F18BFFB1A43F0A5
:1001600001031847E48F000004900000103A24BFF8
:1001700078C878C1FAD8520724BF30C830C144BF0C
:1001800004680C607047000000230024002500264E
:10019000103A28BF78C1FBD8520728BF30C148BFEA
:1001A0000B607047642906F03381782906F06C8172
:1001B000002070471FB51FBD10B510BD06F0BEFB77
:1001C0001146FFF7F7FF00F009F806F0DCFB03B477
:1001D000FFF7F2FF03BC04F08CFB000004F096FA7A
:1001E0004FF4A06004F0BCFB274804F0F9FA00F0DB
:1001F0005DF900F081F900F0FFF900F06AFB03F00F
:1002000090FF00F007FD00F093F93BE01F480078F5
:10021000012804DB00201D49087003F0B2FF1C48D0
:100220000078022806DB0020194908701948007878
:1002300000F062FC18480078042804DB002016490E
:10024000087000F00FFC1548007819280BDB00201F
:1002500012490870124800F09AFA00F0AFFA1148FB
:10026000007803F0FDFE10480088C8280ADB002053
:100270000D4908800D48006808B9012000E0002001
:100280000A490860C2E70000404B4C0014000020FF
:100290001500002028000020160000201700002074
:1002A000A80000202900002018000020940123420B
:1002B000704700BFFEE700BFFEE700BFFEE700BFDC
:1002C000FEE7704770477047704700000CB500208C
:1002D000019000906C48006840F480306A490860E2
:1002E00000BF6948006800F4003000900198401C8D
:1002F0000190009818B90198B0F5A06FF1D162484B
:10030000006800F4003010B10120009001E00020EE
:1003100000900098012843D15C48006840F010002C
:100320005A4908600846006820F003000860084643
:10033000006840F002000860534840685249486035
:100340000846406848600846406840F4806048605D
:100350000846406820F47C1048600846406840F435
:10036000E81048600846006840F08070086000BFF0
:100370004548006800F000700028F9D04248406805
:1003800020F00300404948600846406840F0020001
:10039000486000BF3C48406800F00C000828F9D1D4
:1003A0000CBD10B5FFF792FF10BD10B536480068C0
:1003B00040F001003449086008464068344908406C
:1003C0003149486008460068324908402E490860B3
:1003D0000846006820F4802008600846406820F441
:1003E000FE0048604FF41F008860FFF7DAFF4FF00F
:1003F00000602949086010BD10B5002100200022CE
:10040000214B5B6803F00C0121B1042906D00829B7
:1004100028D107E0214B224C236027E01F4B204CC2
:10042000236023E0184B5B6803F47010164B5B6885
:1004300003F48032022303EB904022B9194B43436B
:10044000174C23600DE0104B5B6803F4003323B1BD
:10045000144B4343124C236003E0104B4343104CB6
:10046000236003E00D4B0E4C236000BF00BF064B22
:100470005B68C3F303130C4CE15C094B1B68CB4076
:10048000074C236010BD0000001002400020024015
:100490000000FFF8FFFFF6FE08ED00E000127A0012
:1004A0000000002000093D000400002008B50121E3
:1004B000482004F0DFFD2020ADF8000010208DF86A
:1004C000030003208DF802006946094804F016FB7A
:1004D0002021074804F0BFFB2020ADF8000069464A
:1004E000044804F00BFB2021024804F0B4FB08BDD3
:1004F000000C01400018014008B50121082004F05B
:10050000B9FD4FF48070ADF8000010208DF80300A5
:1005100003208DF802006946044804F0EFFA4FF416
:100520008071024804F099FB08BD0000000C0140F6
:100530001FB50121202004F0AAFD294805F002F88A
:1005400040F2E730ADF808004720ADF80400002085
:10055000ADF80A00ADF8060001A9214805F0C6F87B
:1005600037208DF8000003208DF801008DF802007F
:1005700001208DF80300684604F0F7F901211848BE
:1005800005F0D6FE01221146154805F026FC012192
:10059000134805F007FC1FBD10B50121104805F0F8
:1005A000CAFEC0B10F480078401C0E4908700E48C2
:1005B0000078401C0C4908700C480078401C0B491E
:1005C00008700B480078401C0949087009480088E9
:1005D000401C084908800121014805F0BDFE10BDFE
:1005E0000014004014000020150000201600002018
:1005F000170000201800002000B589B00220ADF8D7
:10060000200028208DF8230003208DF8220008A95F
:10061000784804F073FA0121084604F038FD44F6E6
:100620002060ADF80C004720ADF808000020ADF8C0
:100630000E00ADF80A0002A94FF0804005F056F810
:100640000420ADF814000020ADF81C00ADF8160031
:10065000ADF81A000120ADF8180005A9800705F0D3
:10066000D8FA1C208DF8040000208DF805008DF8C4
:10067000060001208DF8070001A804F076F9052195
:10068000880705F055FE01220521880705F0A5FB26
:100690000121880705F086FB09B000BD10B50421D3
:1006A000080705F048FE01284DD15348007800F0B6
:1006B0000100002838D04FF0804005F020FE4F495F
:1006C00008600846006818B108460068401C0860C9
:1006D0004B480088012812D14848008849494A4AB5
:1006E000128821F8120048480088401C46490880BA
:1006F00008460088082802DD0020414908803F485C
:10070000006841F65831884205D901203C490880EB
:1007100000203D49088000214FF0804005F006FD93
:100720000020354908700EE000214FF0804005F0B0
:10073000CDFD3148007840F001002F4908700221BA
:10074000480705F0E1FC0521880705F005FE10BD0E
:100750000146002018E031F81020B2F57A7F02DC63
:100760004FF47A7201E031F8102021F8102031F8AE
:100770001020B2F5FA6F02DB4FF4FA6201E031F8B3
:10078000102021F81020401C0828E4DB704710B529
:1007900004462046FFF7DCFF20891C49088020889A
:1007A0004880608988806088C880A0890881A08886
:1007B0004881E0898881E088C88110BD134800899C
:1007C00040F2DC51884203DD00201149087002E04C
:1007D00001200F4908700D48408940F2DC518842E1
:1007E00003DD00200B49087002E001200949087070
:1007F0007047000000080140260000202000002073
:1008000024000020A80000201C000020D0000020B0
:1008100028000020290000201FB50121092004F034
:1008200029FC0121042004F032FC4FF47070ADF873
:100830000C0018208DF80F0003208DF80E0003A97E
:10084000404804F05BF944F61F60ADF8040047200F
:10085000ADF800000020ADF80600ADF802006946D2
:10086000394804F043FF1FBD1FB56020ADF80000FC
:100870000120ADF802000020ADF80800ADF8060038
:100880006946314804F06FFF08212F4805F0BAFB94
:1008900069462D4804F0A9FF08212B4805F0BBFB51
:1008A0006946294804F0EEFF0821274805F0C0FBFF
:1008B0006946254805F031F80821234805F0C1FBB9
:1008C0000121214805F06EFB01211F4805F06AFA5D
:1008D0001FBD10B5FFF7A0FFFFF7C6FF10BD10B595
:1008E000B0F57A7F01DA4FF47A70B0F5FA6F01DD76
:1008F0004FF4FA60B1F57A7F01DA4FF47A71B1F50D
:10090000FA6F01DD4FF4FA61B2F57A7F01DA4FF444
:100910007A72B2F5FA6F01DD4FF4FA62B3F57A7FBD
:1009200001DA4FF47A73B3F5FA6F01DD4FF4FA632D
:10093000054C34342080241D2180241D2280241D58
:10094000238010BD000C0140000800402DE9F84F45
:1009500004460F4690461D460A9E384607F0DEFACA
:100960008146414607F020FC2061D4E9040107F0EC
:100970001BFCA061206960612946206907F0E2FB49
:1009800004D22946E06807F011F9E06085F00049DB
:100990004846216907F0D6FB07D285F00049484652
:1009A000E16807F003F9E06004E0D4E9030107F02F
:1009B000FDF8E0603146E06807F0C4FB00D2E66075
:1009C00086F000494846E16807F0BCFB02D286F099
:1009D0000040E0607F48808840F21451884201DC8A
:1009E0000020E060A169A06807F0E0FA0090E168EB
:1009F000606807F0DBFA82462169206807F0D6FAC2
:100A00008346514607F0D2F88146009907F0CEF8A8
:100A1000E061BDE8F88F2DE9F04704460D46164623
:100A20001F466D49C8696D4907F0BEFB804607F057
:100A300021FA05FB00496A49C869684907F0B4FB17
:100A4000804607F017FA06FB00996649C8696349B2
:100A500007F0AAFB804607F00DFA07FB009080B272
:100A6000BDE8F087F8B55B494988A1F2DC5007F092
:100A70003DFA06465C4907F007F904465B49886879
:100A800007F014FA85B25A485A4B2246294600907C
:100A90005948FFF75BFF4F490988A1F2DC5007F086
:100AA00025FA0646504907F0EFF804464F494868D2
:100AB00007F0FCF985B24E484E4B2246294600907D
:100AC0004E48FFF743FF4349C988A1F2DC5007F0C5
:100AD0000DFA0646444907F0D7F80446434908682A
:100AE00007F0E4F985B24248424B2246294600907D
:100AF0004348FFF72BFFF8BDF8B5044641490868A5
:100B0000414907F053FA06463B49C86907F0CEF958
:100B100085B23E483E4B3246294600902E48FFF7AC
:100B200015FF38494868384907F040FA0646334906
:100B3000C86907F0BBF985B23448354B32462946BF
:100B400000902748FFF702FF2E4988682E4907F0DA
:100B50002DFA06462A49C86907F0A8F985B22B483C
:100B60002B4B3246294600901E48FFF7EFFE1CBB78
:100B7000184988884FF0FF3301221146FFF74BFFD9
:100B800014490882888801239A1E1946FFF743FFFB
:100B90001049488288884FF0FF331A461946FFF7FC
:100BA0003AFF0C498882888801231A46991EFFF76C
:100BB00032FF0849C88205E00020064908824882C1
:100BC0008882C882034DEB8AAA8A698A288AFFF73D
:100BD00086FEF8BDD0000020540100200080BB44F8
:100BE000740100209401002000005041E800002022
:100BF00000007A4400002041F4000020140100208D
:100C000034010020C4000020E12E654200409C45D4
:100C1000000048424FF07E500949086000204860BB
:100C200088604FF07E500749086000204860886067
:100C30004FF07E500449086000204860886070478B
:100C400074010020540100209401002038B50446AE
:100C5000F74890F82400C0B114B10220009001E0E0
:100C600000200090F24A1268D17BF14A5268107855
:100C70006B46012203F000FC10B14FF0FF3038BD8D
:100C80009DF80010EA48417423E0E948807A10B9E1
:100C90004FF0FF30F3E724B1E548407C08B1002075
:100CA000EDE714B10120009001E000200090E04A3F
:100CB0001268D17BDE4A526810786B46012203F03D
:100CC000DBFB10B14FF0FF30D9E79DF80010D8489A
:100CD00041740020D3E738B500241FE0D4480068F1
:100CE000C07AA04204D0D2480068407DA04200D122
:100CF00012E0CF49496808786B460122214603F08B
:100D0000EBFB10B14FF0FF3038BD9DF800202146BD
:100D1000C8A005F049FB00BF601CC4B2C4484068CD
:100D20000079A042DADC0020EEE770B504460D46FB
:100D3000BF480068C07AA04204D0BD480068407D2A
:100D4000A04202D14FF0FF3070BDB9484068007931
:100D5000A04202DC4FF0FF30F6E7B5494968087859
:100D60002B460122214603F0B7FBEDE738B50446D8
:100D7000AF4890F82300A04201D1002038BD14B143
:100D80003020009001E000200090A948807C20B134
:100D90009DF8000040F002000090A54890F8220065
:100DA00020B19DF8000040F080000090A04A126839
:100DB000117D9F4A526810786B46012203F05CFB5C
:100DC00010B14FF0FF30D9E7994880F82340002058
:100DD000D4E738B5044604F0700010B1012000904B
:100DE00005E014B10020009001E040200090904AFE
:100DF0001268917C8E4A526810786B46012203F08B
:100E00003BFB20B100218A488172481E38BD9DF805
:100E1000000020F04001864801730020009004F09B
:100E2000400020B99DF8000040F00400009004F05C
:100E3000200020B99DF8000040F00200009004F06E
:100E4000100020B99DF8000040F00100009004F06F
:100E5000080020B99DF8000040F038000090744A66
:100E60001268D17C724A526810786B46012203F0F6
:100E700003FB20B100216E488172481EC6E724B1F1
:100E8000082C02D00020FFF771FF6948847200210E
:100E90000175322003F077FC0020B7E738B504462F
:100EA0006348807CA04201D1002038BD002C46D090
:100EB0005F4A126811795E4A526810786B460122C7
:100EC00003F00AFB10B14FF0FF30EEE79DF8000091
:100ED00020F020000090564A12681179544A526856
:100EE00010786B46012203F0C7FA10B14FF0FF30C3
:100EF000DBE7032003F047FC022000904C4890F809
:100F0000220020B19DF8000040F080000090484889
:100F100090F8230020B19DF8000040F030000090D0
:100F2000434A1268117D424A526810786B4601228A
:100F300003F0A2FA002851D04FF0FF30B5E73C4A49
:100F4000126811793A4A526810786B46012203F010
:100F5000C3FA10B14FF0FF30A7E73548807A00F0B0
:100F6000010028B19DF8000040F02000009004E04E
:100F70009DF8000020F0200000902D4A12681179A1
:100F80002B4A526810786B46012203F075FA10B1B3
:100F90004FF0FF3089E7032003F0F5FB244890F879
:100FA000220010B18020009001E000200090204835
:100FB00090F8230020B19DF8000040F03000009030
:100FC0001B4A1268117D1A4A526810786B4601223A
:100FD00003F052FA10B14FF0FF3066E71448847402
:100FE000002062E708B51248807A10B94FF0FF3050
:100FF00008BD002000900E4A1268D17B0C4A52684E
:1010000010786B46012203F037FA10B14FF0FF3031
:10101000EEE7074A12685179054A526810786B4624
:10102000012203F029FA68B14FF0FF30E0E7000039
:1010300050000020252335783A20252335780D0AE5
:1010400000000000F84A12681179F74A52681078D7
:101050006B46012203F010FA10B14FF0FF30C7E7E2
:10106000F14890F82400002853D00C200090EE4A5C
:1010700012681179EC4A526810786B46012203F02D
:10108000FBF910B14FF0FF30B2E7322003F07BFBE9
:10109000C0200090E448807A00F0010020B19DF863
:1010A000000040F020000090DF4A12681179DE4A0B
:1010B000526810786B46012203F0DEF910B14FF050
:1010C000FF3095E7D848407C10B10220009001E045
:1010D00000200090D44A1268D17BD34A526810781D
:1010E0006B46012203F0C8F910B14FF0FF307FE7E3
:1010F00000200090CC4A12685179CB4A526810788F
:101100006B46012203F0B8F9002855D04FF0FF30AC
:101110006EE704200090C44A12681179C24A5268EE
:1011200010786B46012203F0A7F910B14FF0FF30A1
:101130005EE7BD48807C20B9BB48807A00F00100A2
:1011400010B94020009001E060200090B64A12687B
:101150001179B54A526810786B46012203F08CF978
:1011600010B14FF0FF3043E7322003F00CFBAE48E4
:10117000407C10B10120009001E000200090AA4ABC
:101180001268D17BA84A526810786B46012203F09E
:1011900073F910B14FF0FF302AE7A34A1268517972
:1011A000A14A52681078A04B1033012203F064F971
:1011B00010B14FF0FF301BE7002019E770B504466F
:1011C000002624F00104984890F8240008B100207B
:1011D00070BD9548807A10B94FF0FF30F8E792481B
:1011E000057C807A2040904908740846007CA04223
:1011F00002D04FF0FF3600E0002614B98A48007D87
:1012000018B10120FFF722FD02E00020FFF71EFDCC
:101210003CB1FFF7E7FE20B1834805744FF0FF3083
:10122000D6E73046D4E738B504467F48807A10B90F
:101230004FF0FF3038BDBC2C02DB0120009015E0E0
:10124000622C02DB0220009010E02A2C02DB03203B
:1012500000900BE0142C02DB0420009006E00A2C26
:1012600002DB0520009001E0062000906E48C07A65
:101270009DF80010884201D10020DBE76A4A12681D
:101280009178694A526810786B46012203F0F4F8AD
:1012900010B14FF0FF30CDE79DF800106248C172E9
:1012A0000020C7E738B50446282C02DD4FF0FF3098
:1012B00038BDDCB90020FFF759FD00208DF8000093
:1012C00007208DF80100584A1268917C564A5268EE
:1012D00010786B46022203F0CFF810B14FF0FF30C8
:1012E000E6E70021504801750020E1E70120FFF703
:1012F0003DFD20208DF80000012C06D100208DF846
:1013000001000520FFF78FFF17E0052C06DC012008
:101310008DF801000520FFF786FF0EE0142C06DC97
:1013200002208DF801000A20FFF77DFF05E0032071
:101330008DF801001420FFF776FF9DF801000721CA
:1013400001EB8010C0B28DF80100374A1268917C21
:10135000354A526810786B46022203F08DF810B1BE
:101360004FF0FF30A4E708212F488172002101735C
:10137000012101750020FFF721FF002098E738B513
:1013800004462948807A10B94FF0FF3038BD26480E
:1013900090F8240010B14FF0FF30F7E72248007DAD
:1013A00050B134B1282C04DCE0B2FFF77BFF002001
:1013B000ECE70020FFF776FF042C01DA042404E0B8
:1013C000B4F57A7F01DD4FF47A744FF47A7090FBB4
:1013D000F4F0401EC0B20090134A12685178124ACD
:1013E000526810786B46012203F046F810B14FF0B6
:1013F000FF30CBE79DF80000401C4FF47A7191FB61
:10140000F0F081B20848C1810146C9894810FFF750
:101410000AFF0020BAE738B504460348807A28B9A5
:101420004FF0FF3038BD000050000020022C06D0E5
:10143000042C07D0082C08D0102C0CD108E0002078
:1014400000900BE00820009008E01020009005E0DC
:101450001820009002E04FF0FF30E3E700BFF948AA
:10146000407A9DF80010B0EBE10F01D10020D9E7E0
:10147000F44A1268D179F34A526810786B46012217
:1014800002F0FAFF10B14FF0FF30CBE79DF80000FB
:10149000C110EC4841720020C4E738B50446E94861
:1014A000807A10B94FF0FF3038BDFA2C09D0B4F56E
:1014B000FA7F09D0B4F57A7F09D0B4F5FA6F0CD170
:1014C00008E0002000900BE00820009008E01020C9
:1014D000009005E01820009002E04FF0FF30E3E7B5
:1014E00000BFD848007A9DF80010B0EBE10F01D1A1
:1014F0000020D9E7D34A12689179D24A526810780D
:101500006B46012202F0B8FF10B14FF0FF30CBE77D
:101510009DF80000C010CB4908720020C4E71CB53C
:1015200080208DF80000C74A1268917CC54A526835
:1015300010786B46012202F09FFF10B14FF0FF3090
:101540001CBD642003F01FF900208DF80000BD4A87
:101550001268917CBB4A526810786B46012202F0F7
:101560008BFF10B14FF0FF30EAE7B64A1268917D69
:10157000B44A526810786B46062202F0ADFF10B1F3
:101580004FF0FF30DCE79DF80500C007400F9DF8E5
:10159000031001F0010140EA41009DF8011001F043
:1015A000010140EA010494B1012C03D10121A548B5
:1015B000C17431E0022C03D10021A248C1742BE098
:1015C0002146A1A004F0F0FE4FF0FF30B8E79D4A9D
:1015D0001268D1789B4A526810786B46012202F05B
:1015E0007BFF10B14FF0FF30AAE79DF8000000F03C
:1015F0000F042CB99E4804F0D7FE4FF0FF309FE750
:10160000042C06D19BA004F0CFFE01218D48C174AB
:1016100002E000218B48C174FF218A488172FF20BB
:1016200088490872FF2187484172C1724FF6FF71E5
:10163000C181FF21017481740121017380F822109E
:10164000002180F82310417501751630016041605A
:101650008160163880F8241080F82510C1844FF47A
:10166000FA60FFF71AFF10B14FF0FF3068E7022071
:10167000FFF7D1FE10B14FF0FF3061E70520FFF713
:10168000D2FD10B14FF0FF305AE73220FFF777FE5E
:1016900010B14FF0FF3053E70020FFF78FFD10B17E
:1016A0004FF0FF304CE70020FFF7F8FB10B14FF090
:1016B000FF3045E70020FFF78CFB002040E7704734
:1016C0007CB504460D465F48807A00F0700010B982
:1016D0004FF0FF307CBD5B4A1268117B594A52685B
:1016E00010786B46062202F0F7FE10B14FF0FF3083
:1016F000F0E79DF801009DF8001040EA012000B2DB
:1017000020809DF803009DF8021040EA012000B2FD
:1017100060809DF805009DF8041040EA012000B2A9
:10172000A08015B12846FFF7CAFF0020D2E77CB59C
:1017300004460D464348807A00F0080010B94FF087
:10174000FF307CBD3F4A1268517B3E4A5268107898
:101750006B46062202F0C0FE10B14FF0FF30F0E7FA
:101760009DF801009DF8001040EA012000B22080A1
:101770009DF803009DF8021040EA012000B260804D
:101780009DF805009DF8041040EA012000B2A080F9
:1017900015B12846FFF793FF0020D2E72DE9FE4F51
:1017A00005460C462748807A18B94FF0FF30BDE84F
:1017B000FE8F244A1268917B224A5268107802AB4D
:1017C000022202F089FE10B14FF0FF30EFE79DF8E2
:1017D00009009DF8081040EA012006B214B1204625
:1017E000FFF76DFF17494968C88806F097FB154950
:1017F00001904968B1F9080006F078FB834630464D
:1018000006F074FB5946009006F0CEFC8246019922
:1018100006F03AFA81461F4906F0C8F980464FF0B3
:101820008F4106F0C3FB074606F024FB286000202A
:10183000BDE710B588B004461CB94FF0FF3008B0C2
:1018400010BD29E050000020556E737570706F72E6
:1018500074656420736F6674776172652070726F4F
:1018600064756374207265762025642E0A0000007A
:10187000F890000848616C662073656E736974693E
:1018800076697479207061727420666F756E642E4B
:101890000A00000000000C42206830B9606820B9DE
:1018A000A06810B9002008B010BDFA49496808784E
:1018B00006AB0322114602F00FFE10B14FF0FF30CD
:1018C000F1E79DF81800082101EB201000F00F004F
:1018D000ADF800009DF8190001EB201000F00F009A
:1018E000ADF802009DF81A0001EB201000F00F0087
:1018F000ADF8040020684100BDF90000403091FBC4
:10190000F0F000B2ADF8100060684100BDF90200CF
:10191000403091FBF0F000B2ADF81200A068410039
:10192000BDF90400403091FBF0F000B2ADF81400B6
:10193000D8494968087806AB0622114602F0CCFD6A
:1019400010B14FF0FF30AEE79DF819009DF8181068
:1019500040EA012000B2ADF808009DF81B009DF898
:101960001A1040EA012000B2ADF80A009DF81D00EF
:101970009DF81C1040EA012000B2ADF80C00BDF843
:101980001000BDF80810084400B2ADF81000BDF812
:101990001200BDF80A10084400B2ADF81200BDF8FC
:1019A0001400BDF80C10084400B2ADF81400BDF8E6
:1019B0001000000A8DF81800BDF81000C0B28DF8B4
:1019C0001900BDF81200000A8DF81A00BDF81200C7
:1019D000C0B28DF81B00BDF81400000A8DF81C0081
:1019E000BDF81400C0B28DF81D00AA4949680878F6
:1019F00006AB0622114602F03FFD10B14FF0FF305A
:101A000051E700204FE70146A248007A30B1012893
:101A100007D0022809D003280FD10AE0FA20088055
:101A20000EE04FF4FA7008800AE04FF47A700880F4
:101A300006E04FF4FA60088002E00020088000BF52
:101A400000BF0020704701469248407A30B101281B
:101A500007D0022808D003280CD108E00220087023
:101A60000BE00420087008E00820087005E0102052
:101A7000087002E04FF0FF30704700BF8548C07C1F
:101A800018B108784006000E08700020F4E70146FF
:101A90008048C07A082817D2DFE800F01704070A48
:101AA0000D101318BC20088013E06220088010E09D
:101AB0002A2008800DE0142008800AE00A2008800F
:101AC00007E00520088004E000BF00BF0020088078
:101AD00000BF00BF0020704701466E4890F8240008
:101AE00010B14FF0FF3070476A48C089088000206D
:101AF000F9E7014600200880401E704701464FF07C
:101B0000FF30704701466348007A30B1012807D0A2
:101B1000022808D003280CD108E05F4808600BE0D9
:101B20005E48086008E05E48086005E05D480860BF
:101B300002E04FF0FF30704700BF0020FBE7014696
:101B40005448407A30B1012808D002280AD003282E
:101B500010D10BE04FF4804008800EE041F69C70FD
:101B600008800AE04FF48050088006E04FF40060DF
:101B7000088002E04FF0FF30704700BF4548C07C4E
:101B800010B10888401008800020F5E70146414860
:101B9000007C08700020704701463E48807A10B1F2
:101BA0000120087001E0002008700020704738B55F
:101BB00004463848807A10B94FF0FF3038BD354AB6
:101BC0001268117C334A526810786B46022202F088
:101BD00083FC10B14FF0FF30F0E79DF801009DF855
:101BE000001040EA012000B220800020E6E72DE945
:101BF000FE4F0746884692461D46DDF830B0002667
:101C00000024244890F8240010B1601EBDE8FE8F27
:101C1000002028701F48807A10B94FF0FF30F5E798
:101C20001C48007C10B94FF0FF30EFE71948007CEA
:101C300000F0400008B1B01CC6B21648007C00F0AD
:101C4000200008B1B01CC6B21248007C00F01000A1
:101C500008B1B01CC6B20F48007C00F0080008B103
:101C6000B01DC6B20B4A1268917A0A4A52681078BF
:101C70006B46022202F030FC10B14FF0FF30C5E796
:101C80009DF801009DF8001040EA0129B1450BDAEA
:101C90000020BBE750000020000003430000834207
:101CA0003333034233338341FC4840684088B9EB07
:101CB000600F17DDF94A1268517CF84A52681078B3
:101CC0006B46012202F008FC10B14FF0FF309DE797
:101CD0009DF8000000F0100020B1FFF783F96FF0CD
:101CE000010093E75046FFF7EAFCEC4A1268D17A0C
:101CF000EA4A526810786B46324602F0EDFB10B1AA
:101D00004FF0FF3082E799FBF6F0401E8BF80000A1
:101D100000202870B4422AD0E048007C00F008007F
:101D200028B3601C1DF800001DF8041040EA0120D3
:101D300000B2A8F80000E01C1DF80010A01C1DF85F
:101D4000000041EA002000B2A8F80200601D1DF862
:101D50000010201D1DF8000041EA002000B2A8F884
:101D60000400287840F008002870A01D84B2B44216
:101D700013D0CA48007C00F0400070B1601C1DF810
:101D800000001DF8041040EA012000B238802878D5
:101D900040F040002870A01C84B2B44213D0BF4869
:101DA000007C00F0200070B1601C1DF800001DF8E0
:101DB000041040EA012000B27880287840F020002A
:101DC0002870A01C84B2B44213D0B448007C00F048
:101DD000100070B1601C1DF800001DF8041040EAEE
:101DE000012000B2B880287840F010002870A01CB4
:101DF00084B200200AE7F8B504460F461646A74805
:101E000090F8240010B94FF0FF30F8BDA348807A55
:101E100010B94FF0FF30F8E7A04A1268917A9F4A54
:101E2000526810786B46022202F056FB10B14FF058
:101E3000FF30EAE79DF801009DF8001040EA012517
:101E4000A54203DA00203070401EDEE79348406868
:101E50004088B5EB600F17DD904A1268517C8F4ABD
:101E6000526810786B46012202F036FB10B14FF039
:101E7000FF30CAE79DF8000000F0100020B1FFF726
:101E8000B1F86FF00100C0E7E2B2844B1B68D97A69
:101E9000824B5B6818783B4602F01EFB10B14FF096
:101EA000FF30B2E795FBF4F0401E30700020ACE745
:101EB00001467A4880F82210002070477CB505461C
:101EC00076494968087801AB04220D2102F004FB31
:101ED00008B107207CBD9DF80700C0F301109DF8F4
:101EE000041001F0E00140EAE1008DF800009DF8E7
:101EF0000700C0F381009DF8051001F0E00140EA01
:101F0000E1008DF801009DF8070000F003009DF846
:101F1000061001F0E00140EAE1008DF80200002423
:101F20001CE01DF8040018B9002045F8240013E057
:101F30005B4845F8240006E055F82400594906F0AE
:101F400035F845F824001DF80400401EC0B20DF815
:101F500004000028F0D100BF601CC4B2032CE0DBF9
:101F60000020B7E72DE9FE4F06460F4600256846DC
:101F7000FFF7A4FF002442E056F8240057F824108D
:101F8000A0EB010ABAF1000F01DB514601E0CAF1F2
:101F90000001084605F0AAFF83464FF08F4105F087
:101FA00073FE80465DF82400002105F02FFF16D057
:101FB0005DF82410404605F067FE82464FF07E51E2
:101FC00006F0F2F8814629F0004A3748416A504647
:101FD00006F0B8F812D20120A04005430EE03248C6
:101FE000C169404605F0AEFF05D32F48016A40465F
:101FF00006F0A8F802D20120A0400543641C032C7F
:10200000BADB2846BDE8FE8F2DE9FC5F06460F4689
:10201000002522494968087801AB03220D2102F00E
:102020005BFA10B10720BDE8FC9F9DF8040000F0AA
:102030001F008DF804009DF8050000F01F008DF8CA
:1020400005009DF8060000F01F008DF80600002432
:1020500062E056F8240057F82410A0EB010BBBF106
:10206000000F01DB594601E0CBF10001084605F005
:102070003DFF4FF08F41009005F006FE814601A81C
:10208000005DC0B30849086805F048FF834659461B
:10209000064805F0F9FD80460FE0000050000020E2
:1020A0007B14AE3E1D5A843FAC83000800B04C4503
:1020B000FE49404605F07AFF804601A8005D401EBB
:1020C000C0B201A908550028F2D14146484605F0A2
:1020D000DBFD83464FF07E5106F066F882462AF01B
:1020E000004BF3488169584606F02CF813D20120C2
:1020F000A04005430FE0FFE7ED480169484605F0C1
:1021000021FF05D3EA484169484606F01BF802D290
:102110000120A0400543641C032C9ADB284682E77B
:102120002DE9F04F87B005460C46914601208DF809
:10213000100000208DF81100DE4A1268917CDD4A03
:102140005268107804AB022202F096F920B14FF0E9
:10215000FF3007B0BDE8F08FC82002F014FB00206C
:102160008DF81000D34A1268D17BD24A5268107899
:1021700004AB012202F080F910B14FF0FF30E8E724
:10218000CC4A12685179CB4A5268107804AB0122CC
:1021900002F072F910B14FF0FF30DAE7C54A126869
:1021A000917CC44A5268107804AB012202F064F9B1
:1021B00010B14FF0FF30CCE7BE4A1268D17DBD4A66
:1021C0005268107804AB012202F056F910B14FF0BA
:1021D000FF30BEE7B74A12681179B64A52681078E4
:1021E00004AB012202F048F910B14FF0FF30B0E724
:1021F0000C208DF81000AF4A12681179AD4A526870
:10220000107804AB012202F037F910B14FF0FF3023
:102210009FE70F2002F0B7FAA648806A407A8DF84F
:102220001000A44A12689178A24A5268107804AB50
:10223000012202F021F910B14FF0FF3089E79D48EB
:10224000806A007A8DF810009A4A12685178994A8B
:102250005268107804AB012202F00EF910B14FF071
:10226000FF3076E7B9F1000F07D09248806A807A94
:1022700040F0E0008DF8100004E08E48806A807A1B
:102280008DF810008B4A126891798A4A526810784A
:1022900004AB012202F0F0F810B14FF0FF3058E724
:1022A000B9F1000F07D08348806AC07A40F0E0009F
:1022B0008DF8100003E07E48C07A8DF810007D4A4A
:1022C0001268D1797B4A5268107804AB012202F07F
:1022D000D3F810B14FF0FF303BE7B9F1000F02D057
:1022E000C82002F050FA40208DF81000714A1268A0
:1022F0001179704A5268107804AB012202F0BCF8E0
:1023000010B14FF0FF3024E778208DF81000694AB3
:1023100012685179674A5268107804AB012202F0C2
:10232000ABF810B14FF0FF3013E76149888902F034
:102330002AFA00208DF810005E4A126851795D4A31
:102340005268107804AB012202F096F810B14FF0F9
:10235000FF30FEE6574A1268917A564A5268107862
:1023600004AB022202F0B8F810B14FF0FF30F0E6F3
:102370009DF811009DF8101040EA012B0C209BFBEA
:10238000F0F0C6B20020A86068602860A0606060BD
:102390002060824665E0474A1268D17A454A526811
:1023A000107804AB0C2202F097F810B14FF0FF3018
:1023B000CFE69DF811009DF8101040EA012000B210
:1023C000ADF808009DF813009DF8121040EA0120B6
:1023D00000B2ADF80A009DF815009DF8141040EA0F
:1023E000012000B2ADF80C00BDF9081020680844C7
:1023F0002060BDF90A10606808446060BDF90C10E7
:10240000A0680844A0609DF817009DF8161040EAE7
:10241000012000B2ADF800009DF819009DF81810D9
:1024200040EA012000B2ADF802009DF81B009DF8C3
:102430001A1040EA012000B2ADF80400BDF9001006
:10244000286808442860BDF902106868084468607C
:10245000BDF90410A8680844A8600AF1010000F062
:10246000FF0AB24597DB1248D0F800C02868C117B0
:10247000090441EA1041070462460023384603F08C
:102480006FFF32460023CDE9020103F069FF2860A7
:102490000748D0F800C06868C117090441EA104134
:1024A000070462460023384606E0000054E3853FF7
:1024B000AC8300085000002003F052FF3246002396
:1024C000CDE9020103F04CFF6860FE48D0F800C07F
:1024D000A868C117090441EA1041070462460023B5
:1024E000384603F03DFF32460023CDE9020103F0F8
:1024F00037FFA860F348D0F804C02168C81700046B
:1025000040EA11480F04624600233846414603F072
:1025100027FF32460023CDE9020103F021FF2060AE
:10252000E848D0F804C06068C117090441EA1041C6
:10253000070462460023384603F012FF32460023A8
:10254000CDE9020103F00CFF6060DE48D0F804C062
:10255000A068C117090441EA10410704624600233C
:10256000384603F0FDFE32460023CDE9020103F0B8
:10257000F7FEA060A068002804DDA068A0F5803008
:10258000A06003E0A06800F58030A0600020E0E5D6
:1025900038B50446CC4890F82400A04201D1002070
:1025A00038BD24B3C84890F8250010B94FF0FF306B
:1025B000F6E70020FEF74AFB0020FEF76FFCC24959
:1025C000C88CFEF7DCFE00200090BF4949680878FF
:1025D0006B460122232101F04FFF0121BA4880F808
:1025E00024100120FEF732FBFEF7FCFC13E0002074
:1025F000FEF72CFBB448007C0090B349496808788A
:102600006B460122232101F037FF0021AE4880F8FC
:102610002410FEF7E7FC0020C2E72DE9F04F8DB053
:1026200083460F4602200C90A74890F8240020B162
:102630000020FFF7ADFF012600E0002603A8FFF70A
:10264000E2F905A8FFF7FFF901A8FFF720FA02A8B1
:10265000FFF742FA9C4890F80AA004A8FFF796FA00
:10266000002407E0002239465846FFF759FD00B91B
:1026700002E0641C022CF5DB00BF022C01D1002516
:1026800028E0002407E0012206A909A8FFF748FD79
:1026900000B902E0641C022CF5DB00BF022C01D162
:1026A000002517E006A93846FFF75CFC00F0FF089C
:1026B00009A95846FFF7A8FC00F0FF090025B9F169
:1026C000000F01D145F00105B8F1000F01D145F02F
:1026D000020500BFFF207C490872FF217A48417241
:1026E000C1724FF6FF71C181FF2181720174012116
:1026F0000173BDF80C00FEF7D0FE9DF81400FEF744
:102700008AFEBDF80400FEF78EFDBDF80800FEF756
:1027100036FE5046FEF75DFB9DF81000FEF74EFDBD
:1027200016B10120FFF734FF28460DB0BDE8F08F49
:10273000F8B504460D46164616B94FF0FF30F8BD01
:102740006148807A10B94FF0FF30F8E720128DF819
:102750000000E0B28DF801009DF8010028445A49BC
:1027600049684989884202DD4FF0FF30E7E7564A61
:102770001268117E544A526810786B46022201F0AA
:102780007BFE10B14FF0FF30D9E7EAB24E4B1B6829
:10279000597D4D4B5B681878334601F06DFE10B1E2
:1027A0004FF0FF30CBE70020C9E7F8B504460D46EF
:1027B000164616B94FF0FF30F8BD4348807A10B97D
:1027C0004FF0FF30F8E720128DF80000E0B28DF8EE
:1027D00001009DF8010028443B4949684989884225
:1027E00002DD4FF0FF30E7E7374A1268117E364AC4
:1027F000526810786B46022201F03EFE10B14FF095
:10280000FF30D9E7EAB2304B1B68597D2E4B5B682D
:102810001878334601F060FE10B14FF0FF30CBE77F
:102820000020C9E72DE9F04385B005460E469046E5
:102830009946254890F8250020B14FF0FF3005B0AB
:10284000BDE8F08316B94FF0FF30F8E7002423E02D
:10285000281B102801DD102000E0281B87B2321948
:1028600039462046FFF764FF10B14FF0FF30E6E72E
:1028700001AA39462046FFF798FF10B14FF0FF300C
:10288000DDE730193A4601A903F0C6FE10B16FF03A
:102890000100D4E7E01984B2AC42D9DB4FEA28202A
:1028A0008DF8000008F0FF008DF80100064A12685C
:1028B000917E054A526810786B46022201F0DCFDD9
:1028C00038B103E0AC830008500000204FF0FF3027
:1028D000B5E70121FE4880F82510A0F826900020D9
:1028E000ADE70146FA4890F82400087000207047D0
:1028F0004FF0FF30704702464FF0FF3070470146FF
:102900004FF0FF307047F8B505460F461446002CCF
:1029100070D0B5F5FF5F01DDFF2605E0202D01DA5F
:10292000012601E0C5F3471607B90127282C02DD6F
:102930004FF0FF30F8BDE648407D28BBE44890F8F2
:10294000240038B10020FFF723FE0121E04880F881
:10295000201003E00021DE4880F82010DC4816300B
:10296000FFF751F8DA481830FFF76DF8D8481A30F9
:10297000FFF78DF8D6481C30FFF7AEF8D448817ABF
:1029800081771F30FFF702F90020FEF75FF9002082
:10299000FEF788FC00208DF80000CD4A126891787F
:1029A000CB4A526810786B46012201F065FD10B1E8
:1029B0004FF0FF30BEE740208DF80000C44A126897
:1029C000D17BC34A526810786B46012201F054FD56
:1029D00000B165E08DF800608DF80170BC4A1268A6
:1029E000117ABB4A526810786B46022201F044FD0E
:1029F00008B155E047E0052001F0C5FEB448407A33
:102A0000072101EBC000C0B28DF80000B04A126887
:102A1000D179AF4A526810786B46012201F02CFD43
:102A200000B13DE020208DF80000012C03D10020F2
:102A30008DF801000EE0052C03DC01208DF801006B
:102A400008E0142C03DC02208DF8010002E00320D2
:102A50008DF801009DF80100072101EB8010C0B244
:102A60008DF801009A4A1268917C994A5268107850
:102A70006B46022201F000FD00B111E001219448F3
:102A80004175002056E7924A1632002103E0505C5F
:102A900000B105E0491C0C29F9D34FF0FF3049E79C
:102AA000FF208B490872FF2189484172C1724FF69D
:102AB000FF71C181FF2181720174012101730146FF
:102AC000887FFEF786F98249C88AFEF7E6FC8049CE
:102AD000087EFEF7A0FC7E49488BFEF7A4FB7C49EC
:102AE000888BFEF74CFC7A49C87FFEF767FB784875
:102AF00090F8200010B10120FFF74AFD0021744832
:102B00004175002016E770B588B002A905A8FFF747
:102B100084FD0446032C3ED101A8FEF7F3FF05987F
:102B200005F0E4F90646019905F040FA054605F07E
:102B3000A1F90590069805F0D9F90646019905F026
:102B400035FA054605F096F90690079805F0CEF996
:102B50000646019905F02AFA054605F08BF907901B
:102B600005A800F06AFA6846FEF7E9FFBDF8001014
:102B7000029848430290BDF8001003984843039020
:102B8000BDF8001004984843049002A800F0E8FA49
:102B9000002008B070BD0120FBE7014691F900203C
:102BA000002A01DD00201EE091F90020002A01DA50
:102BB000042018E091F90120002A01DD012012E033
:102BC00091F90120002A01DA05200CE091F9022098
:102BD000002A01DD022006E091F90220002A01DA34
:102BE000062000E00720704710B504462046FFF796
:102BF000D4FF0346E01CFFF7D0FF43EAC00083B2D6
:102C0000A01DFFF7CAFF43EA801083B2184610BD2B
:102C100070B5002401F0C3FAFEF781FC002840D112
:102C20007820FEF7D6F8C4B20CB1012070BD782030
:102C3000FEF7C4FAC4B20CB10220F7E76420FEF735
:102C40009EFBC4B20CB10320F0E700F05BF9C4B204
:102C50000CB10420EAE71F48FFF7C6FF054600F065
:102C60005BF9C4B20CB10520E0E740F2731000F04C
:102C700094FDC4B20CB10620D8E7642000F006FB36
:102C8000C4B20CB10720D1E7FFF73DFF04460CB1F9
:102C90000820CBE70120FFF77BFCC4B21CB1092060
:102CA000C4E70A20C2E70020C0E72DE9F04F97B043
:102CB0004FF07E54002500264FF0000910A811A9FE
:102CC00016AB0CAACDE9001012A914A804E000006C
:102CD000500000207C00002000F0BEFE18B1012052
:102CE00017B0BDE8F08FBDF8500082490880BDF8EC
:102CF00052004880BDF854008880BDF848007E49E5
:102D00000880BDF84A004880BDF84C008880BDF8B6
:102D1000440000F4807000287ED00C9805F0E6F89E
:102D200007464FF09D4104F0AFFF04460D9805F0B3
:102D3000DDF807464FF09D4104F0A6FF05460E98CA
:102D400005F0D4F807464FF09D4104F09DFF06467C
:102D50000F9805F0CBF807464FF09D4104F094FF23
:102D6000814621464FF0804005F020F9314606901B
:102D700005F01CF9294608904FF0404005F016F97F
:102D80004946069005F012F90790089904F00EFFE5
:102D9000099004F0DFFECDE90A0103F081FE8246CE
:102DA0004FF00052554B04F0FBFB074604F0A6F928
:102DB0005349886031464FF0804005F0F7F83146BE
:102DC000039005F0F3F8824629464FF0404005F0A5
:102DD000EDF82946039005F0E9F88346514605F0E1
:102DE000E3F980464FF07E5104F0E0FE074604F020
:102DF000B1FECDE9060121464FF0804005F0D6F83E
:102E00008346294605F0D2F8804631464FF080408F
:102E100005F0CCF8834600E068E0494605F0C6F8C6
:102E20008246414604F0C2FE074604F093FECDE917
:102E30000401DDE9062304F07BF84FF000522F4B2C
:102E4000CDE9080104F0ACFBCDE90A0104F056F924
:102E50002B4948604946484605F0A8F83146059098
:102E6000304605F0A3F829460390284605F09EF861
:102E700021460290204605F099F80190029904F04D
:102E800095FE8346039905F08FF90490059905F0A6
:102E90008BF9824604F05EFECDE9060149462046E4
:102EA00005F084F831460590284605F07FF8049037
:102EB000059904F07BFE83464FF0804105F076F8DB
:102EC000824604F047FE0746DDE9062304F030F8A9
:102ED0004FF00052094BCDE9080104F061FBCDE948
:102EE0000A0104F00BF90649086001E00220F7E648
:102EF0000020F5E6300000202A000020DCA54C4030
:102F0000E800002010B5C8234FF48062F74940F66E
:102F1000F630FFF787FC10BD10B586B00446F4A06C
:102F200000680390F3A000680290F3A0006801908D
:102F3000F2A00068009004F0030003A9085C8DF87B
:102F4000140003A8C4F3C101405C8DF8150003A868
:102F5000C4F38111405C8DF8160004F0030002A94F
:102F6000085C8DF8100002A8C4F3C101405C8DF824
:102F7000110002A8C4F38111405C8DF8120005AA6B
:102F8000032140F22640FFF7D3FB18B14FF0FF308A
:102F900006B010BD04AA032140F22A40FFF7C8FB87
:102FA00010B14FF0FF30F3E70198059000980490BE
:102FB00004F0040058B19DF8140040F001008DF8B1
:102FC00014009DF8100040F001008DF8100004F08E
:102FD000200058B19DF8150040F001008DF8150053
:102FE0009DF8110040F001008DF8110004F480708C
:102FF00058B19DF8160040F001008DF816009DF8BC
:10300000120040F001008DF8120005AA03214FF4D0
:103010008860FFF78DFB10B14FF0FF30B8E704AACE
:10302000032140F23140FFF783FB10B14FF0FF3036
:10303000AEE7B34804810020AAE71FB50446B048B4
:10304000007A00F0030054F820000190AC48007AA8
:1030500000F0040010B1019840420190A848007AA5
:10306000C0F3C10054F820000290A548007A00F097
:10307000200010B1029840420290A148007AC0F3AB
:10308000811054F8200003909D48008900F480705E
:1030900010B10398404203909A49019880FB0101C6
:1030A000800F40EA810001909649029880FB011050
:1030B000820042EA917002909249039880FB0110CD
:1030C000820042EA917003900198000E8DF8000092
:1030D0000198000C8DF801000198000A8DF802009B
:1030E0000198C0B28DF803006A4604214FF4747051
:1030F000FFF71EFB18B14FF0FF3004B010BD02986F
:10310000000E8DF800000298000C8DF80100029866
:10311000000A8DF802000298C0B28DF803006A46DA
:1031200004214FF47570FFF703FB10B14FF0FF302F
:10313000E3E70398000E8DF800000398000C8DF86B
:1031400001000398000A8DF802000398C0B28DF8C0
:1031500003006A4604214FF47670FFF7E9FACCE7E2
:1031600070B588B0064601A8FEF7E9FCBDF804007A
:103170000021C90341EA5045C4036148007A00F0C8
:10318000030056F8200005905D48007A00F0040026
:1031900010B10598404205905948007AC0F3C1002B
:1031A00056F8200006905648007A00F0200010B132
:1031B0000698404206905248007AC0F3811056F8B3
:1031C000200007904E48008900F4807010B10798E5
:1031D000404207900598C117A0FB042301FB04316E
:1031E00000FB0510810041EA927005900698C11716
:1031F000A0FB042301FB043100FB0510810041EA20
:10320000927006900798C117A0FB042301FB0431BC
:1032100000FB0510810041EA927007900598000EAE
:103220008DF808000598000C8DF809000598000A33
:103230008DF80A000598C0B28DF80B000698000EB4
:103240008DF80C000698000C8DF80D000698000A09
:103250008DF80E000698C0B28DF80F000798000E8A
:103260008DF810000798000C8DF811000798000ADF
:103270008DF812000798C0B28DF8130002AA0C2135
:103280004FF42570FFF754FA08B070BD30B585B023
:1032900004461DA207CA02AB07C3C82C03DD4FF0CA
:1032A000FF3005B030BDC82090FBF4F0401E85B261
:1032B000280A8DF80000E8B28DF801006A46022164
:1032C00040F21620FFF734FA10B14FF0FF30E8E774
:1032D00002AA0C2140F6C120FFF72AFA10B14FF0E4
:1032E000FF30DEE7064884810020DAE7D483000857
:1032F0004CCD6C000CC92C00365676002646660074
:10330000B401002009E3CA02FEF2ABC4AAF1DFDF78
:10331000BBAFDFDF0146FC48808908800020704792
:103320002DE9FC4706460F4606F0070010B1B7F539
:10333000C86F03DD4FF0FF30BDE8FC87384604F06E
:10334000EDFD8146F14904F09FFC80466846FEF79A
:103350007AFB9DF80000022806D0042816D0082821
:1033600026D0102848D135E04FF08D41404604F07A
:103370001DFE814604F09AFD84B2E549404604F002
:1033800015FE814604F092FD85B238E04FF08C4185
:10339000404604F00BFE814604F088FD84B2DD490E
:1033A000404604F003FE814604F080FD85B226E02D
:1033B0004FF08B41404604F0F9FD814604F076FD64
:1033C00084B2D549404604F0F1FD814604F06EFD1B
:1033D00085B214E04FF08A41404604F0E7FD814693
:1033E00004F064FD84B2CD49404604F0DFFD81461F
:1033F00004F05CFD85B202E04FF0FF309CE700BFB7
:1034000020128DF80400E0B28DF8050028128DF826
:103410000600E8B28DF8070006F00100A0B101AA8D
:1034200002214FF4EA70FFF783F910B14FF0FF303B
:1034300082E70DF1060202214FF49270FFF778F94E
:1034400010B14FF0FF3077E706F00200A0B101AAFB
:1034500002214FF4EC70FFF76BF910B14FF0FF3021
:103460006AE70DF1060202214FF49470FFF760F94C
:1034700010B14FF0FF305FE706F00400A0B101AAE1
:1034800002214FF4EE70FFF753F910B14FF0FF3007
:1034900052E70DF1060202214FF49670FFF748F94A
:1034A00010B14FF0FF3047E7002045E738B504463C
:1034B0000020009004F0010020B19DF8000040F0D1
:1034C0003000009004F0020020B19DF8000040F0B0
:1034D0000C00009004F0040020B19DF8000040F0C2
:1034E000030000906A4601214FF4A470FFF720F911
:1034F00038BD38B50446012C01DA012402E0042C61
:1035000000DD0424601EC0B200906A46012140F232
:103510004F10FFF70DF938BD38B50446052094FB70
:10352000F0F085B228128DF80000E8B28DF80100A5
:103530006A4602214FF4EF70FFF7FAF838BD38B54C
:103540000446052094FBF0F085B228128DF80000A7
:10355000E8B28DF801006A4602214FF4ED70FFF7E2
:10356000E7F838BDF8B505460E464FF47A7095FB7E
:10357000F0F000FB06F4200E8DF80000200C8DF812
:103580000100200A8DF80200E0B28DF803006A46BF
:1035900004214FF4AE70FFF7CBF8F8BD38B5044600
:1035A000052094FBF0F084B220128DF80000E0B208
:1035B0008DF801006A4602214FF4AD70FFF7B8F8AC
:1035C00038BD38B50446052094FBF0F084B22012D3
:1035D0008DF80000E0B28DF801006A4602214FF438
:1035E000AC70FFF7A5F838BD38B5044614B94FF0F4
:1035F000FF3038BD6A4604214FF45870FFF7D5F804
:1036000010B14FF0FF30F4E79DF8000000069DF880
:10361000011040EA01409DF8021040EA01209DF8A7
:103620000310084320600020E3E738B50446200E6D
:103630008DF80000200C8DF80100200A8DF80200A2
:10364000E0B28DF803006A4604214FF45870FFF78A
:103650006FF838BD38B5044614B94FF0FF3038BDA7
:103660006A4604214FF47170FFF79FF810B14FF0D4
:10367000FF30F4E79DF8000000069DF8011040EAD5
:1036800001409DF8021040EA01209DF80310084314
:1036900000EB8000800020600020E0E738B50446A1
:1036A0001420B4FBF0F4200E8DF80000200C8DF8EF
:1036B0000100200A8DF80200E0B28DF803006A468E
:1036C00004214FF47170FFF733F838BD38B5044664
:1036D00064B120208DF8000028208DF801003020F2
:1036E0008DF8020038208DF8030004E0A3220421A5
:1036F000684602F0BDFF6A46042140F69E20FFF7AF
:1037000017F8FDF76FFC38BDB401002000004843F6
:10371000000040460000C045000040450000C04495
:1037200038B5044664B1C0208DF80000C2208DF881
:103730000100C4208DF80200C6208DF8030004E0CB
:103740008B220421684602F093FF6A46042140F66A
:103750009820FEF7EDFFFDF745FC38BD3EB5044669
:103760006CB1FDA1D1E900208968CDE9002002916A
:103770006A4609214FF49760FEF7DAFF3EBDF9A2D1
:10378000D2E900109268CDE9010200916A46092150
:103790004FF49760FEF7CCFFF0E73EB504460220F9
:1037A0008DF80000CA208DF80100E3208DF802009A
:1037B00009208DF803006A4604216820FEF7B8FF4F
:1037C000A3208DF8000004F0400048B1C0208DF81F
:1037D0000100C8208DF80200C2208DF8030006E029
:1037E000A3208DF801008DF802008DF8030004F489
:1037F000C07048B1C4208DF80400CC208DF80500BD
:10380000C6208DF8060006E0A3208DF804008DF890
:1038100005008DF80600A3208DF807008DF808003C
:103820008DF809006A460A2140F6A720FEF780FFBE
:1038300004F0030018B120208DF8000002E0D82029
:103840008DF800006A46012140F6B620FEF770FFB1
:1038500004F0200018B10120FFF780FF02E00020F3
:10386000FFF77CFF04F4C07008B304F4807060B10B
:10387000B2208DF800008B208DF80100B6208DF865
:1038800002009B208DF803000BE0B0208DF80000B3
:1038900080208DF80100B4208DF8020090208DF872
:1038A00003006A46042140F6A220FEF741FF04F01F
:1038B000010020B3F8208DF800006A4601214FF482
:1038C0000B60FEF735FFFA210720FFF729FD0720DF
:1038D000FFF7ECFD0120FFF70CFE6420FFF71CFE54
:1038E0004FF4FA70FFF72BFEC821A148FFF73AFE0C
:1038F0002820FFF753FE0A20FFF763FE08E0D820D8
:103900008DF800006A4601214FF40B60FEF710FFAE
:1039100004F0020018B1D9208DF8000002E0D82090
:103920008DF800006A46012140F23D70FEF700FF6D
:1039300004F0040018B10120FFF7F2FE02E00020BD
:10394000FFF7EEFE04F0100018B10120FFF7BEFEF5
:1039500002E00020FFF7BAFE44F0080085494881E4
:10396000FDF740FB00208349887304F0400018B144
:103970000846807B801D887304F4C07020B17D48A8
:10398000807B801D7B49887304F0140020B1794846
:10399000807B10307749887304F0030020B17548AC
:1039A000807B001D7349887300203EBD014671482D
:1039B00040890880002070472DE9F0410446E078F6
:1039C00000F0C006E07800F03F05607800F00100EC
:1039D00098B1EF102846E91705EB5171C910A5EB16
:1039E000C101491C01F0FF086248006820B161482C
:1039F000414602683846904700BF607800F00800F2
:103A000030B15C48406818B1B0115A4A51688847D3
:103A10000020BDE8F08110B586B0044656A207CA62
:103A200003AB07C357A207CA8DE80700012C09D0D2
:103A3000022C0ED103AA0B2140F68220FEF778FE5D
:103A400006B010BD6A460B2140F68220FEF770FEDC
:103A5000F6E74FF0FF30F3E72DE9F04F8DB0074662
:103A6000884615469946DDE9166B00240020308013
:103A70004049887B5A4605A9FEF7BDF918B1601E7A
:103A80000DB0BDE8F08F3B48807A00F014000028AC
:103A900061D09DF8140000069DF8151040EA014021
:103AA0009DF8161040EA01209DF817100843286081
:103AB0009DF8180000069DF8191040EA01409DF895
:103AC0001A1040EA01209DF81B10084368609DF819
:103AD0001C0000069DF81D1040EA01409DF81E10D4
:103AE00040EA01209DF81F100843A8609DF82000BF
:103AF00000069DF8211040EA01409DF8221040EA9E
:103B000001209DF823100843E86004F11000C4B2BE
:103B1000286800140190686800140290A8680014D6
:103B20000390E8680014049001984043029901FB57
:103B30000100039901FB0100049901FB010ABAF19C
:103B4000706F02DBBAF1885F22DDFDF74BFA0020CF
:103B50003080401E94E721E0B8AAB38DB4980D35AB
:103B60005D000000B8AAAAAAB088C3C5C7000000BB
:103B700009E3CA02B4010020D8B1B9F38BA391B60E
:103B800009B4D900DAB1B9F38BA391B6DAB4DA008B
:103B9000B6F9000040F48070308000BF3448807A6D
:103BA00000F0400020B305A9601C085C095D40EAF4
:103BB000012000B2A8F8000005A9E01C095C05AAD4
:103BC000A01C105C41EA002000B2A8F8020005A980
:103BD000601D095C201D105C41EA002000B2A8F8BD
:103BE0000400A01DC4B2B6F9000040F00800308007
:103BF0001F48408900F4C07008B305A9601C085C28
:103C0000095D40EA012000B2388005A9E01C095C8A
:103C100005AAA01C105C41EA002000B2788005A92A
:103C2000601D095C201D105C41EA002000B2B880D4
:103C3000A01DC4B2B6F9000040F0700030800C48FE
:103C4000807A00F0030018B105A90819FFF7B4FE47
:103C50004846FDF734FD002012E7014604480160A4
:103C60000020704701460248416000207047000074
:103C7000B401002010B5044600BF4021F74801F010
:103C800007FC0028F9D02146F44801F093FB10BD51
:103C9000F0B589B006460F461546202101A802F06E
:103CA000EFFC1C2D01DD09B0F0BD002101AAE81CCC
:103CB000115488208DF804008DF805608DF80650A9
:103CC000002405E0395D01AAE01C1154601CC4B257
:103CD000AC42F7DB00240AE001A9E81C085C095D9E
:103CE0000844C1B201AAE81C1154601CC4B2E81C0B
:103CF0008442F1DB002405E001A9085DFFF7BAFF6B
:103D0000601CC4B2281D8442F6DB00BFCBE72DE95E
:103D1000FE4304460D4617461E46DDE90A89200A81
:103D20008DF80000E0B28DF80100280A8DF802003D
:103D3000E8B28DF80300380A8DF80400F8B28DF867
:103D40000500300A8DF80600F0B28DF807004FEA42
:103D500018208DF8080008F0FF008DF809004FEAE0
:103D600019208DF80A0009F0FF008DF80B000C22D5
:103D70006946A120FFF78CFFBDE8FE832DE9F04FD7
:103D800087B004460D4616461F46DDE912ABDDE955
:103D900010891C21684602F073FC200A8DF800008F
:103DA000E0B28DF80100280A8DF80200E8B28DF823
:103DB0000300300A8DF80400F0B28DF80500380ACF
:103DC0008DF80600F8B28DF807004FEA18208DF83C
:103DD000080008F0FF008DF809004FEA19208DF85F
:103DE0000A0009F0FF008DF80B004FEA1A208DF849
:103DF00012000AF0FF008DF813004FEA1B208DF827
:103E000014000BF0FF008DF815001498000A8DF8CF
:103E100016001498C0B28DF817001C226946AF2016
:103E2000FFF736FF07B0BDE8F08F2DE9F04F87B000
:103E300004460D4616461F46DDE912ABDDE9108942
:103E40001C21684602F01CFCAD208DF80000200A01
:103E50008DF80100E0B28DF80200280A8DF8030009
:103E6000E8B28DF80400300A8DF80500F0B28DF844
:103E70000600380A8DF80700F8B28DF808004FEAFE
:103E800018208DF8090008F0FF008DF80A004FEAAD
:103E900019208DF80B0009F0FF008DF80C004FEA97
:103EA0001A208DF80D000AF0FF008DF80E004FEA81
:103EB0001B208DF80F000BF0FF008DF810001498F8
:103EC000000A8DF811001498C0B28DF812001C225F
:103ED0006946AC20FFF7DCFE07B0BDE8F08F2DE9A6
:103EE000F04F87B004460D4616461F46DDE912AB7B
:103EF000DDE910891C21684602F0C2FB200A8DF81A
:103F00000000E0B28DF80100280A8DF80200E8B246
:103F10008DF80300300A8DF80400F0B28DF805002A
:103F2000380A8DF80600F8B28DF807004FEA18201D
:103F30008DF8080008F0FF008DF809004FEA1920FD
:103F40008DF80A0009F0FF008DF80B004FEA1A20E7
:103F50008DF80C000AF0FF008DF80D004FEA1B20D1
:103F60008DF80E000BF0FF008DF80F001498000A7A
:103F70008DF810001498C0B28DF811001598000A41
:103F80008DF812001598C0B28DF813001698000A2B
:103F90008DF814001698C0B28DF815001798000A15
:103FA0008DF816001798C0B28DF817001898000AFF
:103FB0008DF818001898C0B28DF819001998000AE9
:103FC0008DF81A001998C0B28DF81B001C226946A2
:103FD000AE20FFF75DFE07B0BDE8F08F2DE9F0439E
:103FE00087B004460D4617461E46DDE90E891C21A2
:103FF000684602F045FBAC208DF80000200A8DF8E1
:104000000100E0B28DF80200280A8DF80300E8B242
:104010008DF80400380A8DF80500F8B28DF8060016
:10402000300A8DF80700F0B28DF808004FEA18202A
:104030008DF8090008F0FF008DF80A004FEA1920FA
:104040008DF80B0009F0FF008DF80C001C2269466A
:10405000AC20FFF71DFE07B0BDE8F083003801403B
:104060002DE9F04186B004469CBB1B4908681B49FA
:1040700003F09CFF804603F0FDFE05B216498868F8
:10408000174903F093FF804603F0F4FE06B212498D
:104090004868134903F08AFF804603F0EBFE07B23D
:1040A0001048B0F90400CDE90276049501900D485E
:1040B000B0F90200DFF82CC00090BCF90030DFF846
:1040C00028C0BCF90420BCF90210BCF90000FFF7BD
:1040D00055FE06B0BDE8F081E80000200000204158
:1040E0000000C842300000202A00002008B501214D
:1040F000052000F0BFFF4FF40040ADF80000102095
:104100008DF8030003208DF802006946FD4800F099
:10411000F5FC0121FC4800F0C2FD0020FB490860CD
:1041200008BD10B5FFF7E2FF07E0F948006808B9DD
:10413000012000E00020F6490860FEF769FD002834
:10414000F3D110BD70B504460D46B4F9000003F07C
:10415000CDFE0646EF4903F029FF2860B4F90200BE
:1041600003F0C4FE0646EB4903F020FF6860B4F993
:10417000040003F0BBFE0646E64903F017FFA86003
:1041800070BD10B5FEF791FD18B9E349E348FFF79C
:10419000D9FF10BD10B5022000F0D1FA10BD08B54E
:1041A0000121082000F066FF4FF44060ADF80000E8
:1041B00010208DF8030003208DF802006946D848CE
:1041C00000F09CFC4FF44061D54800F044FD08BD70
:1041D00010B5D348001D006820F0F020D049091D1B
:1041E00008600846006840F4405008600120C84953
:1041F0000C310860CB49C1F8A801FFF7CBFF0020C4
:10420000C3490C310860FFF7C5FF0020C549C1F85C
:10421000A80110BD10B5C248001D006820F0F020B4
:10422000BF49091D08600846006840F44050086016
:104230000020B74908310860BA49C1F8AC01FFF75E
:10424000A9FF0120B24908310860B649C1F8AC01A4
:10425000FFF7A0FF10BD10B50024B148001D006895
:1042600020F0F020AE49091D08600846006840F4BF
:10427000004008600120A6490C310860FFF78AFF62
:104280000120A849C1F8A801FFF784FF07E0601CDE
:10429000C4B2FA2C03DDFFF7BDFF012010BD9C481E
:1042A000743800680028F2D199490831086000BFCD
:1042B000F4E710B500209649083108609848001DC1
:1042C000006820F0F0209649091D08600846006843
:1042D00040F44050086000209249C1F8AC01FFF75B
:1042E00059FF01208A4908310860FFF753FF002079
:1042F0008C49C1F8A80110BD10B5002084490831CF
:1043000008608748001D006820F0F0208449091DDE
:1043100008600846006840F4405008600120814968
:10432000C1F8AC01FFF736FF012079490831086078
:10433000FFF730FF00207B49C1F8A80110BD70B520
:1043400004467748001D006820F0F0207449091DDC
:1043500008600846006840F44050086000206C493E
:1043600008310860002513E0E00969490C31086054
:104370006006040E01206B49C1F8A801FFF70AFF8F
:104380000020634908310860FFF704FF681CC5B2CC
:10439000082DE9DB70BD70B5054600246048001D9E
:1043A000006820F0F0205E49091D0860084600689A
:1043B00040F400400860002615E000205449083110
:1043C0000860FFF7E7FE01205649C1F8A801600622
:1043D000040E4F487438006808B1601CC4B2FFF77F
:1043E000D9FE701CC6B2082EE7DB15B9FFF784FFB3
:1043F00001E0FFF75EFF204670BD70B505460C4634
:10440000FFF7E6FED020FFF79AFFFFF724FF18B171
:10441000FFF700FF012070BD2846FFF790FFFFF770
:104420001AFF2046FFF78BFFFFF715FF18B1FFF7C4
:10443000F1FE0120EFE7FFF7EDFE0020EBE770B59E
:104440000446FFF7C5FED020FFF779FFFFF703FF13
:104450002046FFF774FFFFF7FEFEFFF7B9FED120FD
:10446000FFF76DFFFFF7F7FE0020FFF794FF05460B
:10447000FFF7D0FE284670BD2DE9F04105460E46F7
:1044800017469846FFF7A4FE002141EA4501C8B24D
:10449000FFF755FFFFF7DFFE20B1FFF7BBFE01205E
:1044A000BDE8F0813046FFF74AFFFFF7D4FE002455
:1044B0000CE018F80400FFF742FFFFF7CCFE18B13C
:1044C000FFF7A8FE0120EBE7601CC4B2BC42F0DBA2
:1044D000FFF7A0FE0020E3E72DE9F04106460F4676
:1044E00014461D46FFF774FE002141EA4601C8B29A
:1044F000FFF725FFFFF7AFFEB0B1FFF78BFE0120FE
:10450000BDE8F0810008014000023000BC012142FA
:10451000A081214289A18B3AC400002030000020F4
:10452000000C0140008021423846FFF708FFFFF7EA
:1045300092FEFFF74DFE012101EB4601C8B2FFF7E5
:10454000FEFEFFF788FE0DE0012C04D10020FFF7EE
:1045500022FF287003E00120FFF71DFF2870601E76
:10456000C4B26D1C002CEFD1FFF754FE0020C7E74A
:1045700010B50446E006010E1B20FFF73EFF10BDFC
:1045800010B50446E006010E1C20FFF736FF10BDF3
:1045900070B504460025BC2C01DB012510E0622C1F
:1045A00001DB02250CE02A2C01DB032508E0142C9A
:1045B00001DB042504E00A2C01DB052500E00625CB
:1045C00029461A20FFF719FF70BD70B50446B4F5EF
:1045D0007A7F01DD4FF47A74042C00DA04244FF45E
:1045E0007A7090FBF4F0401EC5B229461920FFF7FF
:1045F00004FF0546264604EBD671C1F34F00FFF7D2
:10460000C7FF70BD2DE9F84F6B460222412168209B
:10461000FFF762FF9DF801009DF8001040EA0120BD
:104620000FFA80FA504602F0A3FF80460022334B77
:1046300002F046FE0646324A324B02F091FD044635
:1046400002F05CFD83463049584603F0AFFC044657
:1046500003F010FC00B2BDE8F88F2DE9FC410446E0
:104660000D4616466B46062243216820FFF734FFAD
:104670000746BFB99DF801009DF8001040EA0120EF
:1046800000B220809DF803009DF8021040EA01204E
:1046900000B228809DF805009DF8041040EA012032
:1046A00000B230803846BDE8FC812DE9FC4104466B
:1046B0000D4616466B4606223B216820FFF70CFF8D
:1046C0000746BFB99DF801009DF8001040EA01209F
:1046D00000B220809DF803009DF8021040EA0120FE
:1046E00000B228809DF805009DF8041040EA0120E2
:1046F00000B230803846BDE8FC81000000407540C3
:10470000A4703D0AD74342400000C84210B56FF084
:10471000040000F074F92E4800682E49B0FBF1F057
:104720002D4908700846007800EB4001C1EBC0102D
:104730004FF6FF7101EAC0002849088010BD01460C
:10474000254A12784A434FF0E0235A6100229A61C9
:104750001A46126942F001021A6100BF4FF0E022CE
:10476000106900F001021AB100F48032002AF5D07D
:104770004FF0E022126922F001024FF0E0231A61AB
:1047800000229A6170470146144A12884A434FF04A
:10479000E0235A6100229A611A46126942F001022E
:1047A0001A6100BF4FF0E022106900F001021AB157
:1047B00000F48032002AF5D04FF0E022126922F096
:1047C00001024FF0E0231A6100229A617047000055
:1047D0000000002000127A008600002088000020DF
:1047E00010B586B00446012144F2040000F042FCFA
:1047F0004FF40070ADF8140003208DF81600182057
:104800008DF8170005A9424800F078F94FF4806050
:10481000ADF8140004208DF8170005A93C4800F0FD
:104820006DF925208DF8000003208DF801008DF82A
:10483000020001208DF80300684600F096F801940C
:104840000020ADF80800ADF80A00ADF80C00ADF896
:1048500010000C20ADF80E0001A92E4800F0B1FCAC
:10486000012240F225512B4800F043FD0121294847
:1048700000F033FD06B010BD10B540F225512548BB
:1048800000F01CFE10B3234800F098FDC4B222488B
:10489000008800F40040C8B91F48008800F4804038
:1048A00060B10A2C03D000201B49088020E01A4880
:1048B000008840F400401849088019E00D2C06D10A
:1048C0001548008840F480401349088010E01248E1
:1048D0000088C0F30D0011490C540F480088401C9B
:1048E0000D49088008460088C72801DD002008809F
:1048F00010BD00BF704700BF064A128802F0400298
:10490000002AF9D0C2B2034B1B1D1A807047000069
:1049100000080140003801408C000020C401002044
:104920000948804709480047FEE7FEE7FEE7FEE743
:10493000FEE7FEE7FEE7FEE7FEE7FEE7044805497F
:10494000054A064B70470000AB0300083101000820
:10495000F0020020F0080020F0040020F004002005
:1049600031490143314A1160704770B5002100237D
:104970000F22C47804B32D4C246804F4E064C4F519
:10498000E064210AC1F10403CA40447804FA03F147
:104990008478144021430901254C0678A1550478F8
:1049A00004F01F050124AC4005786D11AD0005F140
:1049B000E025C5F8004109E0047804F01F05012452
:1049C000AC401C4D0678761145F8264070BD1A4A59
:1049D0000A400243154B1B1F1A60704739B1134A36
:1049E000121D12680243114B1B1D1A6006E00F4A8C
:1049F000121D126882430D4B1B1D1A60704704285C
:104A000008D14FF0E021096941F004014FF0E022A4
:104A1000116107E04FF0E021096921F004014FF036
:104A2000E0221161704700000000FA050CED00E083
:104A300000E400E080E100E080FFFF1F10B50446C5
:104A4000CC48844208D10121042000F02DFB002134
:104A5000042000F029FB46E0C748844208D1012128
:104A6000082000F021FB0021082000F01DFB3AE0A7
:104A7000C248844208D10121102000F015FB00211A
:104A8000102000F011FB2EE0BD48844208D1012126
:104A9000202000F009FB0021202000F005FB22E08F
:104AA000B848844208D10121402000F0FDFA0021DD
:104AB000402000F0F9FA16E0B348844208D1012101
:104AC000802000F0F1FA0021802000F0EDFA0AE0E9
:104AD000AE48844207D10121801500F0E5FA00219B
:104AE000A01500F0E1FA10BD10B50121084600F054
:104AF000DBFA0021012000F0D7FA10BD2DE9F041CA
:104B0000024600250026002000230024002791F8FB
:104B100003C00CF00F0591F803C00CF0100CBCF1B1
:104B2000000F03D091F802C04CEA050591F800C0CF
:104B3000BCF1000F31D0146800202BE04FF0010CC5
:104B40000CFA00F3B1F800C00CEA03069E4220D133
:104B500083004FF00F0C0CFA03F7BC4305FA03FC7B
:104B60004CEA040491F803C0BCF1280F06D14FF0C1
:104B7000010C0CFA00FCC2F814C00AE091F803C062
:104B8000BCF1480F05D14FF0010C0CFA00FCC2F843
:104B900010C0401C0828D1D31460B1F800C0BCF18B
:104BA000FF0F34DD546800202EE000F1080C4FF0B8
:104BB000010808FA0CF3B1F800C00CEA03069E42A3
:104BC00021D183004FF00F0C0CFA03F7BC4305FA18
:104BD00003FC4CEA040491F803C0BCF1280F05D192
:104BE00000F1080C08FA0CF8C2F8148091F803C020
:104BF000BCF1480F07D100F1080C4FF0010808FA8A
:104C00000CF8C2F81080401C0828CED35460BDE8D0
:104C1000F0814FF6FF710180022181700421C17083
:104C200070470246002093680B400BB1012000E062
:104C3000002070470146886880B270470246002015
:104C4000D3680B400BB1012000E000207047014603
:104C5000C86880B2704701617047416170470AB10E
:104C6000016100E041617047C16070474FF48032DC
:104C70000A4382618161826182698269704702466A
:104C80000020434B18684FF68073184040EA02102A
:104C900008433F4B186070473E49C8617047F0B504
:104CA0000A46002300240021002500F00046B6F14A
:104CB000004F02D1364EF16901E0354E7168C0F304
:104CC000034583B200F44016B6F5401F08D121F029
:104CD00070612F4E766826F070662D4F7E6012E070
:104CE00000F48016B6F5801F06D1032606FA05F4F7
:104CF000A14341F0706106E0460D360103FA06F665
:104D0000B14341F0706122B1460D360103FA06F657
:104D1000314300F00046B6F1004F02D11C4EF16164
:104D200001E01B4E7160F0BD30B500228B071C0FF7
:104D30000F2303FA04F2164B08338C1053F8243077
:104D40009343134C08348D1044F8253023468C10BF
:104D500053F824308C07240F00FA04F423430C4C3E
:104D600008348D1044F8253030BD0A49DC31086024
:104D70007047000000080140000C01400010014095
:104D80000014014000180140001C014000200140B7
:104D90000000014000002042DF48006840F00100B0
:104DA000DD49086008464068DC490840DA49486047
:104DB00008460068DA490840D74908600846006894
:104DC00020F4802008600846406820F4FE00486017
:104DD0004FF41F0088607047CF49096821F4803183
:104DE000CD4A11601146096821F480211160B0F5A7
:104DF000803F03D0B0F5802F0ED106E0C649096888
:104E000041F48031C44A116007E0C349096841F4A4
:104E1000A021C14A116000E000BF00BF704710B57B
:104E200001460022002300204A11012A02D1BA4C77
:104E3000236806E0022A02D1B74C236A01E0B64C8F
:104E4000636A01F01F02012494401C400CB1012050
:104E500000E0002010BD38B500200090002400259F
:104E600000BF3120FFF7DBFF05460098401C009093
:104E70000098B0F5A06F01D0002DF2D03120FFF7DF
:104E8000CEFF08B1012400E00024204638BD0146D1
:104E90000020A14A106820F0F80040EAC10010602C
:104EA0007047A04908607047024600209A4B586836
:104EB00020F47C1042EA01031843974B5860704776
:104EC00098490866704701460020934A506820F0D0
:104ED00003000843506070478F48406800F00C00A2
:104EE0007047014600208C4A506820F0F0000843CB
:104EF0005060704701460020874A506820F4E06007
:104F000008435060704701460020834A506820F4EF
:104F1000605040EAC1005060704729B17E4A527A21
:104F200002437D4B5A7204E07B4A527A82437A4BA9
:104F30005A7270477B49D83108607047014600209B
:104F4000754A506820F44040084350607047002183
:104F5000714A20321170704A82F82010012802D064
:104F600004280AD104E001216B4A2032117005E0C7
:104F70000521694A2032117000E000BF00BF704770
:104F80006949086070476449096A0143624A1162CD
:104F90007047654944390860704730B500210022E8
:104FA000002400235C4D6D6805F00C0121B104293B
:104FB00005D0082923D105E05C4D056022E05B4D5A
:104FC00005601FE0544D6D6805F47012524D6D6818
:104FD00005F48034022505EB92421CB9544D55432B
:104FE00005600BE04C4D6D6805F400351DB1504D6A
:104FF0005543056002E04D4D5543056002E04B4DC1
:10500000056000BF00BF444D6D6805F0F00109095F
:10501000484D6B5C0568DD4045603F4D6D6805F4AB
:10502000E061090A434D6B5C4568DD4085603A4D9F
:105030006D6805F46051C90A3E4D6B5C4568DD4002
:10504000C560354D6D6805F44041890B3A4D6B5C88
:10505000C568B5FBF3F5056130BD29B12E4A52692B
:1050600002432D4B5A6104E02B4A526982432A4B7A
:105070005A61704729B1284A92690243264B9A61C6
:1050800004E0254A92698243234B9A61704729B113
:10509000214AD2690243204BDA6104E01E4AD269F8
:1050A00082431D4BDA61704729B11B4AD268024323
:1050B000194BDA6004E0184AD2688243164BDA6072
:1050C000704729B1144A12690243134B1A6104E074
:1050D000114A12698243104B1A61704712494039D4
:1050E000086070470F49C86470470B49C871704722
:1050F0000948406A40F0807007494862704701469D
:105100000020054A92680A400AB1012000E0002010
:105110007047014988727047001002400000FFF894
:10512000FFFFF6FE000042428004424200127A0075
:1051300000093D0094000020A400002010B50446A2
:10514000FB48844209D101218803FFF7ADFF00210C
:105150004FF48040FFF7A8FF32E0F648844209D1BF
:1051600001214804FFF7ADFF00214FF40030FFF7A5
:10517000A8FF25E0F048844209D101218804FFF707
:10518000A0FF00214FF48020FFF79BFF18E0EB48C1
:10519000844209D10121C804FFF793FF00214FF495
:1051A0000020FFF78EFF0BE0E548844208D1012183
:1051B0000805FFF786FF00214FF48010FFF781FFFD
:1051C00010BD2DE9F04786B005460E460024A246E4
:1051D00000BFA1460027B08900B100BF2F462C8A2E
:1051E0004CF6FF700440F08804432C82AC894EF6E4
:1051F000F3100440B088318908437189084304439F
:10520000AC81AC8A4FF6FF400440B0890443AC82C5
:1052100001A8FFF7C2FEC648874202D1DDF810A000
:1052200001E0DDF80CA0A88900F4004040B10AEBD1
:10523000CA0000EB0A1031684900B0FBF1F807E042
:105240000AEBCA0000EB0A1031688900B0FBF1F8E4
:105250006420B8FBF0F004012009642101FB1089EF
:10526000A88900F4004040B1322000EBC900B0FB37
:10527000F1F000F00700044308E0322000EB0910D1
:105280006421B0FBF1F000F00F0004432C8106B064
:10529000BDE8F0874FF41651016000218180C18084
:1052A00001810C21418100218181704710B50246A6
:1052B0000020108A4FF2FF0318400B884C882343CC
:1052C0008C882343CC8823431843108210BD0021CF
:1052D000018041808180C180704721B1828942F480
:1052E0000052828104E082894DF6FF731A40828168
:1052F0007047F0B50346002400260025002040F644
:105300006A17B94200D100BF1846C1F3421401F038
:105310001F06012707FA06F5012C01D10C3004E025
:10532000022C01D1103000E014301AB107682F436D
:10533000076002E00768AF430760F0BD1AB1838AD7
:105340000B43838202E0838A8B4383827047028A05
:105350004FF6F0731A400282028A0A4302827047B3
:1053600082894FF2FF731A40828182890A438281C7
:10537000704721B1828942F00202828104E0828971
:105380004FF6FD731A4082817047028A4FF6DF7331
:105390001A400282028A0A430282704721B1028ABD
:1053A00042F48042028204E0028A4BF6FF731A4004
:1053B00002827047C1F308028280704701468888E4
:1053C000C0F308007047818941F001018181704775
:1053D000028BD2B20283028B42EA0122028370471F
:1053E000028B02F47F420283028B0A4302837047DE
:1053F00021B1828A42F02002828204E0828A4FF642
:10540000DF731A408282704721B1828A42F0100213
:10541000828204E0828A4FF6EF731A4082827047DC
:1054200021B1828A42F00802828204E0828A4FF629
:10543000F7731A408282704721B1828942F4004298
:10544000828103E08289C2F30E028281704721B11A
:10545000828A42F40062828204E0828A4FF2FF7301
:105460001A4082827047828A4FF6FB731A4082820A
:10547000828A0A438282704721B1828A42F0020204
:10548000828204E0828A4FF6FD731A40828270475E
:1054900002460020B1F5007F00D100BF13880B4009
:1054A0000BB1012000E00020704701F40072B2F55A
:1054B000007F00D100BFCA430280704770B502462A
:1054C000002400230025002040F66A16B14200D1D6
:1054D00000BFC1F3421501F01F03012606FA03F3D2
:1054E000012D02D19689334006E0022D02D1168AA1
:1054F000334001E0968A33400C12012606FA04F488
:105500001688344013B10CB1012000E0002070BDBA
:1055100010B50022002340F66A14A14200D100BF5A
:105520000A1201249440A3B2DC43048010BD0000A1
:10553000003801400044004000480040004C00405A
:105540000050004010B50446FE48844208D10121B5
:10555000C014FFF7A9FD0021E014FFF7A5FDC4E08A
:10556000B4F1804F08D101210846FFF7AAFD0021C0
:105570000120FFF7A6FDB8E0F348844208D10121DD
:105580000220FFF79EFD00210220FFF79AFDACE00C
:10559000EE48844208D101210420FFF792FD00214A
:1055A0000420FFF78EFDA0E0E948844208D10121E4
:1055B0000820FFF786FD00210820FFF782FD94E018
:1055C000E448844208D101211020FFF77AFD002130
:1055D0001020FFF776FD88E0DF48844208D10121E2
:1055E0002020FFF76EFD00212020FFF76AFD7CE000
:1055F000DA48844208D101214014FFF755FD00210B
:105600006014FFF751FD70E0D548844209D10121B3
:10561000C804FFF749FD00214FF40020FFF744FDC7
:1056200063E0D048844209D101210805FFF73CFD21
:1056300000214FF48010FFF737FD56E0CA4884423E
:1056400009D101214805FFF72FFD00214FF400107B
:10565000FFF72AFD49E0C548844208D101214020D6
:10566000FFF72FFD00214020FFF72BFD3DE0C04854
:10567000844208D101218020FFF723FD00218020F2
:10568000FFF71FFD31E0BB48844208D1012180159E
:10569000FFF717FD0021A015FFF713FD25E0B64821
:1056A000844209D101210804FFF7FEFC00214FF4D8
:1056B0008030FFF7F9FC18E0B048844209D101219D
:1056C0004804FFF7F1FC00214FF40030FFF7ECFC39
:1056D0000BE0AB48844208D101218804FFF7E4FCC9
:1056E00000214FF48020FFF7DFFC10BD002202886C
:1056F000944B98420ED0994B98420BD0B0F1804F0A
:1057000008D0914B984205D0904B984202D0904BD4
:10571000984204D14FF68F731A404B881A438D4B31
:10572000984207D08C4B984204D04FF6FF431A4062
:10573000CB881A4302808B8883850B880385814B35
:1057400098420BD0854B984208D08B4B984205D09D
:105750008A4B984202D08A4B984201D10B7A038639
:1057600001238382704770B5002400220023058C3A
:105770004FF6FE7635400584028C8388048B4FF605
:105780008F752C40B51E2C400D882C43751E2A4069
:105790000D892A434D882A436A4DA8420BD06F4D8C
:1057A000A84208D0744DA84205D0744DA84202D03A
:1057B000734DA84213D14FF6F7752A404D892A43FD
:1057C0004FF6FB752A408D882A434FF6FF652B4024
:1057D0004FF6FF552B408D892B43CD892B4383807A
:1057E0000483CD888586028470BD70B500240022B4
:1057F0000023058C4FF6EF7635400584028C8388B4
:10580000048B48F6FF752C404FF6FF452C400D8861
:105810004FF6FF7606EA05252C434FF6DF752A4042
:105820000D8906EA05152A434D8806EA05152A431F
:10583000444DA84202D0494DA8421DD14FF67F7574
:105840002A404D894FF6FF7606EA05152A434FF6A2
:10585000BF752A408D8806EA05152A434FF6FF35A5
:105860002B404FF2FF752B408D8906EA85052B43AF
:10587000CD8906EA85052B4383800483CD8805877F
:10588000028470BD70B5002400220023058C4FF601
:10589000FF6635400584028C8388848B4FF68F75B4
:1058A0002C404FF6FC752C400D882C434FF6FF55CD
:1058B0002A400D894FF6FF7606EA05252A434D88D2
:1058C00006EA05252A431F4DA84202D0234DA842CF
:1058D0001DD14FF2FF752A404D894FF6FF7606EA3B
:1058E00005252A434FF6FF352A408D8806EA05250F
:1058F0002A434EF6FF752B404DF6FF752B408D89E0
:1059000006EA05152B43CD8906EA05152B4383804E
:105910008483CD888587028470BD70B50022002302
:105920000024058C4EF6FF7635400584038C848870
:10593000828B48F6FF752A404FF6FF452A400D88B6
:1059400020E00000002C014000040040000800405E
:10595000000C0040001000400014004000340140E2
:10596000004C01400050014000540140001800402C
:10597000001C004000200040004001400044014065
:10598000004801404FF6FF7606EA05252A434DF60A
:10599000FF752B400D8906EA05352B434D8806EA35
:1059A00005352B43FA4DA84202D0FA4DA84208D142
:1059B0004BF6FF752C408D894FF6FF7606EA85156C
:1059C0002C4384808283CD88A0F84050038470BD2E
:1059D000828B4FF2FF331A408283828B4FF6FF7324
:1059E00003EA01231A4382837047F0B50C4615463B
:1059F000002200210026078C4EF6FF7C07EA0C07E8
:105A00000784828B018C4FF6FF7707EA043640F655
:105A1000FF473A404FF6FF7707EA05273A434FF62C
:105A2000FF7707EA03373A43D94FB8420ED0D94F30
:105A3000B8420BD0B0F1804F08D0D74FB84205D054
:105A4000D64FB84202D0D64FB84206D14DF6FF77B6
:105A5000394046F48057394305E047F6FF5739404F
:105A600044F48057394382830184F0BD828B4FF622
:105A7000F3731A408283828B0A4382837047F0B5A6
:105A80000C461546002200210026078C4FF6FF6CBD
:105A900007EA0C070784828B018C4FF6FF7707EA31
:105AA00004264FF60C773A404FF6FF7707EA0317C4
:105AB0002F433A43B64FB8420ED0B64FB8420BD040
:105AC000B0F1804F08D0B44FB84205D0B34FB842C0
:105AD00002D0B34FB84206D14FF6FF57394046F4D3
